:02000000DF29F6
:10000600A53083120313FD00FD0B07280000000036
:020016000800E0
:10001800831203138510F201083072020318232893
:10002800851780304305F1007108003A031D1D282B
:1000380085130517C30D43100513F20A10288514FC
:020048000800AE
:10004A00831203134208003C031D2D284108003C7B
:10005A0003183628032003200130C102031CC203FF
:04006A00252808003D
:0E006E008312031305144108C3000C20080080
:0E007C00831203132D088A002C08820008004E
:10008A0083120313FB01FA01F9018030F800F10C25
:10009A00F00C031C59287408F90775080318750F22
:1000AA00FA070318FB0A0310F01F61287408FA07FD
:1000BA0075080318750FFB07FB0CFA0CF90CF80C02
:1000CA00031C4C287B08F3007A08F2007908F10037
:0600DA007808F0000800A8
:1000E000203083120313BF02C00105304002031801
:1000F00096280530F0000030F1003F08F400F501CB
:1001000045209330F00704300318013EF107400802
:10011000F0070318F10A7008AC007108AD003E202A
:100120008A110A12C1003720C00A7528C101372080
:0A0130002908C100C20125200800C3
:10013A0083120313F801F9011030FC00710DF80D58
:10014A00F90D7408F8027508031C750FF9020318F3
:10015A00B5287408F80775080318750FF90703100E
:0A016A00F00DF10DFC0BA3280800B6
:0E0174008312031305103F08C3000C2008007F
:100182000730831203133205F00040307004BF00C1
:10019200BA207F303305F00080307004BF00BA20EF
:0201A200080053
:1001A40083120313B201063032020318E428B301A8
:1001B400543033020318E228C1013720B30ADA2885
:0601C400B20AD528080074
:1001CA0083120313BE013208BC003308BD000A3093
:1001DA00F4000030F5003C08F0003D08F1009D20D5
:1001EA007808F0007908F1007008BA007108BB00BD
:1001FA000A30F4000030F5003C08F0003D08F10038
:10020A009D207008BC007108BD003E08343E840081
:10021A0030303A07F00070088000BE0A3D08003C02
:10022A00031D19293C08003C031CEC283E08003C2D
:10023A0003182729BE033E08343E84000008BF0085
:06024A0070201B290800D2
:10025000831203133008AC003108AD003E208A1130
:100260000A12F0007008031942293008AC00310866
:10027000AD003E208A110A12BF007020B00A031997
:06028000B10A2829080064
:1002860083120313B201B301C120AA01AB0180306E
:100296002B06F0008030013A7002031D5429F83015
:1002A6002A0203186B292A083007F00031080318C0
:1002B600013E2B07F1007008AC007108AD003E202E
:1002C6008A110A12C1003720AA0A0319AB0A4A2961
:0202D60008001E
:1002D800831203133008003C03188429DC30C10062
:1002E8000530C20025200D30BF00BA20DC30C10027
:1002F8000530C20025200C30BF00BA20B0036C299D
:020308000800EB
:10030A008030831203133106F00080307002031D1F
:10031A009029003030020318A2292D30BF00702026
:10032A003008F0003108F100FF30F400FF30F5002A
:10033A0045207008B0007108B1003008B2003108D9
:06034A00B300E5200800ED
:100350003E208A110A128000840AAC0A0319AD0AF1
:08036000F003031DA8290800A9
:100368008312031385140511FA30C100C201252038
:100378000515B001073030020318CA293008203E9D
:1003880084000008BF00BA20B00ABE29D220B201FA
:06039800B301C1200800C2
:10039E00831203133008B200B301C120B1015430EF
:1003AE0031020318DE29C1013720B10AD62908000F
:1003BE00213083120313A0001330A100A030A2003D
:1003CE000930A3000830A4000C30A5002030A60090
:1003DE00B330A7000630A800C830A90083168501E7
:1003EE008601073083129F0085018601B4219B3060
:1003FE00B0000230B10043210130B0006C21D22098
:10040E005A30B0000630B1002821D030C10007307C
:10041E00C20025200A30A900D2200230B2000630D8
:10042E00B300C1202708B0002808B10028210130F0
:10043E00B0006C21D220B2010630B300C120C13011
:10044E00B0000630B10028210430B2000C30B300E9
:10045E00C120D830B0000630B1002821AE01AF0166
:10046E0080302F06F00080307002031D402A0F30BE
:10047E002E020318582A0230B000CF210230B200EB
:10048E002430B300C1202E08B0002F08B100852102
:10049E002C30C1000130C2002520AE0A0319AF0A6C
:1004AE00372A0430B2000C30B300C120CE30B00079
:1004BE000630B10028217F30F00080302F06700208
:1004CE00031D6B2A2E08F13C0318842A0230B0005B
:1004DE00CF210230B2002430B300C1202E08B0006C
:1004EE002F08B10085212C30C1000130C20025201B
:1004FE000130AE02031CAF03622AD220F430C100D9
:10050E000130C20025200230B2000C30B300C120F1
:10051E009B30B0000630B1002821D030C10007302A
:08052E00C2002520FE299A2AD3
:100536000034003400340034003400340034003415
:100546000034003400340034003400340034003405
:1005560000340034003400340034003400340034F5
:10056600E034F034FC34FC34FE34FF34FF34FF3422
:10057600FE34FE34FC3438345834A034D034D0340D
:10058600E034E034E034E034F034F034F834F83475
:10059600FC34FC34FE34FE34FF34FF34FF34FE34C6
:1005A600FC34FC34F834C0340034003400340034F5
:1005B6000034003400340034003400340034003495
:1005C6000034003400340034003400340034003485
:1005D6000034003400340034003400340034003475
:1005E6000034003400340034003400340034003465
:1005F6000034003400340034003400340034003455
:100606000034C034F834FF34FF34FF34FF34FF3491
:10061600FF34FF343F343F340F3493348034403456
:10062600E034C334C73483340F341E340134833486
:1006360007340F341F343B3437340F341F347F34C0
:10064600FF34FF34FF34FF34FF34FF34FF34FF340C
:10065600FE34F834C034003400340034003400343E
:1006660000340034003400340034003400340034E4
:1006760000340034003400340034003400340034D4
:1006860000340034003400340034003400340034C4
:1006960000340034003400340034003400340034B4
:1006A60000340034C034F834FF34FF34FF34EF3400
:1006B600F734F334E134813437343F343F343E3455
:1006C600FF34073400347F34FF34FF34FF347F3483
:1006D6001F3400348034FF34FF34E03400340034F7
:1006E600FF34FF34003400340334FF34FF34FF3466
:1006F600FF34FF34FF34FF34FF34FF34FF34FE345D
:10070600F0348034003400340034003400340034D3
:100716000034003400340034003400340034003433
:100726000034003400340034003400340034003423
:1007360080348034C034C034E034E034E034F03403
:10074600F03430343034F834F834FE34FF34FF34C7
:10075600FF34FF34FF34FF34FF34FF34FF34FF34FB
:10076600FF34FF34FE34FE34FE34FE34F834F834FD
:10077600F034F034F834F834FC34FF34FF34FF340A
:100786001F348134F034FE34FF34C0340034003476
:1007960000340F340F34C734FF34FF34FF34FF34D2
:1007A600FF34FF34FF34FF34FF347F347E34783433
:1007B600F834F034F034F034F034E034E034E0343B
:1007C600C034C034C03400348034003400340034C3
:1007D60038347E34FF34FF34FF34FF34FF34FF34C3
:1007E600FF34FF341F34033400340034FA34FB344E
:1007F600F334F334F334F334E734E734E734E734EB
:100806000034003400340034FF34FF34DF34DF3486
:10081600CF344F346F346F344F341F341F343F346A
:10082600FF34FF34DF34DE34DF340734C334DF34DF
:10083600DF34DF34FF34FE34FE349E34DF34CF340D
:100846006F346F346F344F340F340F341F347F34AA
:10085600FF34803400340034EF34F734FB34FB3497
:100866007334033407348734FF34FF34FF34FF34E2
:10087600FF34FF34FE347C34003400340034013459
:10088600013403340334073407340F340E340E3482
:100896000E341E341F341F341F343F343F343F346C
:1008A6003F343F343F347F34703470347C347F348B
:1008B6007F347934703470347034F634F634F73467
:1008C600F734F734F034F034E034EF34FF34FF34E7
:1008D600FF34F034F334FB34F934FD34FF347F3421
:1008E6007F347934703470347634773477347B34AB
:1008F6007B343A34383438343B343F343C3418345F
:100906001B3419341D341C340E340E340F340734A2
:10091600073407340334033401340034003400341C
:1009260000340034003400340034003400342F34F2
:1009360000340034003407340034073400341434EF
:100946007F3414347F34143424342A347F342A34E4
:100956001234C434C8341034263446343634493458
:100966005534223450340034053403340034003412
:1009760000341C34223441340034003441342234EF
:100986001C340034143408343E3408341434083427
:1009960008343E34083408340034003450343034DB
:1009A60000341034103410341034103400346034F1
:1009B60060340034003420341034083404340234F3
:1009C6003E345134493445343E34003442347F3465
:1009D600403400344234613451344934463421348D
:1009E600413445344B3431341834143412347F34A2
:1009F6001034273445344534453439343C344A348C
:100A060049344934303401347134093405340334FB
:100A16003634493449344934363406344934493451
:100A260029341E340034363436340034003400346D
:100A36005634363400340034083414342234413405
:100A4600003414341434143414341434003441345B
:100A5600223414340834023401345134093406344F
:100A660032344934593451343E347E3411341134DD
:100A760011347E347F3449344934493436343E3473
:100A860041344134413422347F34413441342234B8
:100A96001C347F3449344934493441347F34093471
:100AA6000934093401343E344134493449347A3402
:100AB6007F340834083408347F34003441347F34BA
:100AC600413400342034403441343F3401347F34DF
:100AD60008341434223441347F34403440344034B2
:100AE60040347F3402340C3402347F347F3404348F
:100AF600083410347F343E344134413441343E347A
:100B06007F3409340934093406343E3441345134CF
:100B160021345E347F34093419342934463446345A
:100B26004934493449343134013401347F34013491
:100B360001343F344034403440343F341F34203491
:100B4600403420341F343F344034383440343F344A
:100B5600633414340834143463340734083470347A
:100B6600083407346134513449344534433400344D
:100B76007F3441344134003455342A3455342A34D0
:100B860055340034413441347F3400340434023463
:100B96000134023404344034403440344034403468
:100BA60000340134023404340034203454345434D0
:100BB600543478347F344834443444343834383404
:100BC600443444344434203438344434443448348B
:100BD6007F343834543454345434183408347E341E
:100BE6000934013402340C345234523452343E3413
:100BF6007F340834043404347834003444347D3487
:100C0600403400342034403444343D3400347F349E
:100C16001034283444340034003441347F344034B2
:100C260000347C3404341834043478347C34083486
:100C36000434043478343834443444344434383452
:100C46007C3414341434143408340834143414340E
:100C560018347C347C34083404340434083448347E
:100C6600543454345434203404343F3444344034FB
:100C760020343C344034403420347C341C3420341A
:100C8600403420341C343C344034303440343C341A
:100C9600443428341034283444340C34503450341A
:0E0CA60050343C344434643454344C344434BC
:100CB4002034203420342034483465346C346C348B
:100CC4006F34213420342034203420344934203407
:100CD40061346D3420344D346F34683461346D3490
:100CE400653464342034203420344134623475341F
:100CF4002034483461347434613462342034203410
:100D04002034203443346F346D3470347534743487
:100D1400653472342034203420343B342934203474
:100D240045346E34673469346E34653465347234F2
:020D3400003489
:100D36005434683461346E346B347334203466341E
:100D46006F34723420342034203420342034573425
:100D5600613474346334683469346E34673400340F
:100D660045346E3467344D344834613474346134F8
:0C0D760062342E3443344F344D340034CA
:100D82005434653473347434203463346F347534BA
:0A0D92006E3474346534723400349A
:100D9C00443465346334723465346D3465346E3484
:040DAC007434003467
:100DB00049346E346334723465346D3465346E3462
:040DC0007434003453
:02400E00582137
:00000001FF
